:020000040800F2
:1028000098920020C12A000849A80108453B010808
:102810008979010839590008413702080000000091
:102820000000000000000000000000002DE501088D
:10283000D37F00080000000049C20108D92A00081F
:10284000DB2A0008DB2A0008DB2A0008DB2A000854
:10285000DB2A0008DB2A0008DB2A0008DB2A000844
:10286000DB2A0008DB2A0008DB2A0008A97E000812
:10287000DB2A0008DB2A0008DB2A0008DB2A000824
:10288000DB2A0008DB2A00081D2D0008DB2A0008CF
:10289000DB2A0008DB2A0008DB2A0008DB2A000804
:1028A000DB2A0008A1050208DB2A0008DB2A000851
:1028B000E1070208DB2A0008DB2A0008DB2A0008FF
:1028C000DB2A0008DB2A0008DB2A0008DB2A0008D4
:1028D000DB2A0008DB2A0008A1330208DB2A0008F3
:1028E000DB2A0008DB2A0008DB2A0008DB2A0008B4
:1028F000DB2A0008DB2A00080000000000000000BE
:10290000000000000000000000000000DB2A0008BA
:10291000DB2A0008DB2A0008DB2A0008DB2A000883
:10292000DB2A0008DB2A0008DB2A0008DB2A000873
:10293000DB2A00080000000000000000DB2A00087D
:10294000DB2A0008DB2A0008DB2A0008DB2A000853
:10295000DB2A0008DB2A000800000000E13402083E
:10296000DB2A0008DB2A000800000000000000004D
:102970000000000000000000000000000000000057
:1029800000000000DB2A0008DB2A0008DB2A000820
:102990000000000000000000000000000000000037
:1029A0000000000000000000000000000000000027
:1029B0000000000000000000DB2A0008000000000A
:1029C0000000000000000000000000000000000007
:1029D000000000000000000000000000DB2A0008EA
:1029E00000F002F800F05CF80AA090E8000C8244C5
:1029F0008344AAF10107DA4501D100F051F8AFF2A2
:102A0000090EBAE80F0013F0010F18BFFB1A43F0CC
:102A10000103184760A8020080A802000A444FF092
:102A2000000C10F8013B13F0070408BF10F8014B2D
:102A30001D1108BF10F8015B641E05D010F8016B72
:102A4000641E01F8016BF9D113F0080F1EBF10F8D6
:102A5000014BAD1C0C1B09D16D1E58BF01F801CBF9
:102A6000FAD505E014F8016B01F8016B6D1EF9D57C
:102A70009142D6D370470000002300240025002691
:102A8000103A28BF78C1FBD8520728BF30C148BFD1
:102A90000B6070471FB522F058FB1FBD10B510BD6D
:102AA00000F001F91146FFF7F5FF21F08BFE00F071
:102AB0001FF903B4FFF7F2FF03BC00F027F9000091
:102AC0000948804709480047FEE7FEE7FEE7FEE7C2
:102AD000FEE7FEE7FEE7FEE7FEE7FEE704480549FE
:102AE000054A064B704700001D040208E129000852
:102AF000988C002098920020988E0020988E0020BC
:102B000053EA020C00F069802DE9F04B4FF000060B
:102B1000002B1FBFB3FA83F503FA05F424FA05F678
:102B20005E4012BF1643B2FA82F502FA05F4C5F10F
:102B300020051EBF22FA05FC44EA0C04203556EAA3
:102B4000044C4FEA144418BF641C4FF000084FF0C7
:102B50000009904271EB030C39D3002919BFB1FA77
:102B600081F701FA07F6B0FA80F700FA07F6C7F125
:102B700020071EBF20FA07FC46EA0C062037B6FBEA
:102B8000F4FCA7EB0507103F07F01F0BCBF1200665
:102B90000CFA0BFB2CFA06F644BFB3460026202F96
:102BA000A4BF5E464FF0000B5BEA060C08BF4FF077
:102BB000010B19EB0B09ABFB027C48EB0608C01BB1
:102BC00006FB02CC0BFB03CC71EB0C01C1E70B46FF
:102BD000024641464846BDE8F08B13B54FF0000071
:102BE0004FF00001AFF30080BDE81C40704710B506
:102BF000203AC0F00B80B1E81850203AA0E81850F5
:102C0000B1E81850A0E81850BFF4F5AF5FEA027CB5
:102C100024BFB1E81850A0E8185044BF18C918C024
:102C2000BDE810405FEA827C24BF51F8043B40F8C5
:102C3000043B08BF7047D20728BF31F8023B48BFAA
:102C400011F8012B28BF20F8023B48BF00F8012BE8
:102C500070474FF0000200B513469446964620395F
:102C600022BFA0E80C50A0E80C50B1F12001BFF445
:102C7000F7AF090728BFA0E80C5048BF0CC05DF8AB
:102C800004EB890028BF40F8042B08BF704748BFF9
:102C900020F8022B11F0804F18BF00F8012B70476D
:102CA000704770477047754600F02CF8AE46050037
:102CB0006946534620F00700854618B020B5FFF757
:102CC0000DFFBDE820404FF000064FF000074FF029
:102CD00000084FF0000B21F00701AC46ACE8C0093A
:102CE000ACE8C009ACE8C009ACE8C0098D46704743
:102CF00010B50446AFF300802046BDE81040FFF752
:102D0000D8BE000000487047388C002001491820C8
:102D1000ABBEFEE7260002007047000010B5202180
:102D20000D4820F071FE40B120210B4820F069FED3
:102D30000A480068401C094908600121064820F043
:102D400063FE40B10121044820F05BFE04480068A6
:102D5000401C0349086010BD00200140D80D002030
:102D6000D40D00201CB501A820F038FE02208DF8FB
:102D7000040000208DF8050001A820F019FE684627
:102D800020F0F1FD01208DF8000000208DF80100F9
:102D90008DF8020002208DF8030069462A4820F0D1
:102DA000C9FD0021284820F0F0FE0423012207215C
:102DB000254820F03CFE042302220C21224820F06A
:102DC00036FE00220721204820F0D1FE01211E48B6
:102DD00020F008FE01211C4820F009FE00224FF4DB
:102DE0008071194820F0EBFE0721174820F0E2FE21
:102DF0001649154820F0CEFE01229106124820F017
:102E00000BFE01224021104820F006FE01210E4851
:102E100020F0F2FD00BF40210B4820F0F5FD002816
:102E2000F9D0094820F0A6FD00BF074820F0A8FD12
:102E30000028FAD1044820F0ACFD00BF024820F081
:102E4000AEFD0028FAD11CBD002001400002800028
:102E50005A20014908607047C81500200020044925
:102E600008800449087004490880044908607047D4
:102E7000D0150020D2150020D4150020CC1500203C
:102E8000F0B503460C4600250021002001E04E1C51
:102E9000B1B2914202DA5E5C7E2EF8D033E05E5C25
:102EA000032E14D05E5C832E03D14E1C9E5DF02E4B
:102EB0000DD05E5C832E03D14E1C9E5DF12E06D09C
:102EC0005E5C832E15D14E1C9E5D702E11D10125A6
:102ED0004FF0030C0646471CB8B204F806C04E1C5F
:102EE000B1B24FF0F00C0646471CB8B204F806C069
:102EF00007E05E5C4FEA660C0646471CB8B204F871
:102F000006C04E1CB1B2561E8E4201DD002DC6D049
:102F100009E00E464F1CB9B213F806C00646471C1E
:102F2000B8B204F806C0D61E8E42F2DCF0BD000036
:102F30001CB50446684621F0E9F99CB90120104906
:102F40008862022088620F49086000208DF8060020
:102F50000420009002208DF805006946084821F001
:102F6000DFF90BE000208DF806000420009001201E
:102F70008DF805006946024821F0D2F91CBD000019
:102F8000000002402814024070B504460D46022D90
:102F900005D164224FF4DC7014F044FC70BD0B2C9E
:102FA0001DD00C2C49D00D2C76D14048007810B99A
:102FB0000CF0F0FA0CE00122FF2100201BF0E2FDF2
:102FC00008F07AFF0A203A49087000203749087053
:102FD000502204214FF4DC7014F024FC63E03548E7
:102FE000B0F8120285280CDC324890F82A02801CC6
:102FF000032190FBF1F201FB12002E4981F82A0215
:103000000CE02C4991F82A12C81CC11700EB9171F1
:103010008910A0EB8101274A82F82A1201201BF0B7
:1030200049FD0122FF2100201BF0ACFD642202219A
:1030300040F25C6014F0F6FB35E01E48B0F8120276
:1030400085280CDC1B4890F82A02401C032190FBC9
:10305000F1F201FB1200174981F82A020CE0154930
:1030600091F82A12481CC11700EB91718910A0EB4E
:103070008101104A82F82A1201201BF01BFD012257
:10308000FF2100201BF07EFD6422022140F25C60E3
:1030900014F0C8FB07E0FFE7642202214FF4DC7064
:1030A00014F0C0FB00BF00BF00BF77E7760F002021
:1030B0003B080020560A002010B5002413230022EC
:1030C00046A14B4804F0BEFE1323002249A1484804
:1030D000133004F0B7FE132300224BA144482630DE
:1030E00004F0B0FE132300224CA14148393004F013
:1030F000A9FE082300224EA13D484C3004F0A2FE58
:10310000082300224DA13A48543004F09BFE0923C5
:1031100000224DA136485C3004F094FE13230022B7
:103120004CA13348653004F08DFE0020304981F811
:103130007800132300224CA12D48793004F082FE40
:10314000132300224DA12A488C3004F07BFE132368
:1031500000224FA126489F3004F074FE1323002262
:1031600050A12348B23004F06DFE1323002252A177
:103170001F48C53004F066FE1323002253A11C48EB
:10318000D83004F05FFE1323002255A11848EB301D
:1031900004F058FE1323002256A11548FE3004F017
:1031A00051FE00BF04E0202157480155601C84B245
:1031B000FF2CF8DD00200E49A1F812021323002293
:1031C00052A1574804F03EFE4FF4FC600849A1F8B4
:1031D0002802002081F82A0210BD000044657669AB
:1031E00063653A202020202020202020202020005D
:1031F000560A00204C6F6E673A20202020202020A5
:1032000020202020202020004C6174203A20202003
:10321000202020202020202020202000416C7469C4
:103220003A202020202020202020202020202000A4
:103230002D2D2F2D2D2F2D2D000000002D2D3A2D61
:103240002D3A2D2D000000002D2D2D2D2D2D2D2D55
:103250002D0000002D2D2D2D2D2D2D2D2D2D2D2D25
:103260002D2D2D2D2D2D2D00436F757273653A3048
:103270003030202020202020202020005370656541
:10328000643A3030302020202020202020202000D0
:10329000535349443A202020202020202020202061
:1032A0002020200050617468313A2D2D2D2D2D2DB8
:1032B0002D2020202020200050617468323A2D2DCE
:1032C0002D2D2D2D2D2020202020200050617468D0
:1032D000333A2D2D2D2D2D2D2D2020202020200086
:1032E00050617468343A2D2D2D2D2D2D2D20202048
:1032F0002020200050617468353A2D2D2D2D2D2D64
:103300002D20202020202000670B00204643532042
:10331000436865636B3A2020202020202020200075
:103320006A0C00202DE9F0410546002705EB450019
:10333000374A02EB001130230022364804F082FDA8
:10334000354890F8670001281AD13248D0F80600B5
:103350003049C1F80A0008468078012844D108465F
:10336000407901092B48C07B61F307102949C873D4
:1033700008468088C98960F30B012648C18133E083
:10338000254890F8670002282ED12248D0F8067010
:10339000D0F80A001F49C1F806000846C0F80A70B4
:1033A0008078012820D10846407904090846C07B6E
:1033B00001091848407961F3071016494871084619
:1033C000C07B64F30710C87308468088C0F30B06FF
:1033D0000846C089898860F30B010E488180C08946
:1033E00066F30B000B49C8810A480C49086009685C
:1033F000897C01F01F0010F015F8094908600748A2
:1034000000681BF08DFC002006490870BDE8F081C3
:10341000C037002050380020C0320020E80D0020C6
:10342000700E0020270E00202DE9F04703460D46C0
:10343000164600210024002200278C468846894633
:10344000142D02DA0020BDE8F08737E0002231E0D9
:10345000585C904000F0FF0C481C185CC2F1080A50
:1034600040FA0AF0604400F0FF0C481C185C9040E1
:1034700000F0FF08881C185CC2F1080A40FA0AF044
:10348000404400F0FF08881C185C904000F0FF09E1
:10349000C81C185CC2F1080A40FA0AF0484400F05F
:1034A000FF09B44504D1B04502D1B14500D109E0CE
:1034B000501CC2B2082ACBDB481C81B2E81E8842ED
:1034C000C4DC00BFA94201D10020BCE7681A87B262
:1034D000002411E06018401C185CC2F1080A40FA90
:1034E0000AF004EB010A13F80AA00AFA02FA40EA09
:1034F0000A001855601C84B2781EA042EADC6018ED
:10350000185C904000F0FF0A781E03F800A03846CF
:1035100099E700007CB505460FF0C4F8044610F0AA
:1035200033FC04F031FC002D41D121F081FBAB498B
:1035300008800A2C09D14FF48040A94988611AF00B
:1035400059F94FF48040A649886220460FF080FF69
:1035500020460EF0B9FA032C0ED1A24890F8A7002D
:1035600008B9012000E000209E4981F8A700084624
:1035700090F8A7009C49C8711CB90020994981F8AE
:103580006900052C04D101209849087098490870F9
:103590009848407858B9934890F8740018B90120B9
:1035A0009549086003E0012093491039086001F053
:1035B00001FC00F0B9FB00F07DFC90480178002090
:1035C0001CF0A2FE8D48017801201CF09DFE8B4866
:1035D000017802201CF098FE00208849087081497B
:1035E00091F87500FFF79EFE7E4890F875008449BB
:1035F000087084480078022819D11AF095F8002044
:1036000040F23F130246EF21009013F0DDFE002050
:103610001F2110237CA2CDE90010D421182005F031
:10362000E6FC012001F04CFA01F0C4F9D5E00D2CC4
:1036300034D11AF079F879A37DA2C821022008F0CC
:103640004DFE2AE01DF01AFC7E480068F8B947F2EA
:1036500030507C4908607C48006808B9012000E0CF
:103660000020794908600CF047FD7748006890B168
:1036700076490968D1F80A0004F06AFA40B9594954
:1036800091F8750072A376A2962108F027FE04E057
:1036900007F028FB01E007F03BFAD3E755484078F4
:1036A000A8BB5048007C28B14FF4801011F062FF95
:1036B0001AF03AF84B48C07C08B119F04DFE494861
:1036C000007C18B14FF47A7004F098FC4548007DF6
:1036D000D0B1002040F23F130246EF21009013F0DA
:1036E00073FE00213F48B0F815003E4ACDE90001C5
:1036F000B2F81710B2F8190020232C3205F077FC2D
:103700004FF4FA7004F07AFC19F060FE19E0FFE75C
:10371000002040F23F130246EF21009013F054FEC8
:1037200000204FF4FC61102352A2CDE90010942137
:10373000182005F05CFC19F0F7FF4FF4FA7004F064
:103740005DFC514800780EF013F9504908700846A6
:1037500000782549C872234991F8672091F87500CF
:10376000012300210FF01AF81E4890F87500401C44
:10377000032190FBF1F201FB1200C6B2194890F848
:1037800067200023194630460FF008F8154890F8D6
:103790007500801C032190FBF1F201FB1200C6B200
:1037A000104890F867200023194630460EF0F6FFC7
:1037B000374938481FF096FD0120374908701BF043
:1037C00057FA01201BF01CFA01201BF0F7F9012029
:1037D0001BF07EF90020314908707CBDBE0E002030
:1037E00000000240C032002046080020F50E0020F4
:1037F000F60E0020242D002028140240F70E002091
:103800000A0E0020B80E002044544D462052656D2B
:103810006F7465204B696C6C000000002020202034
:103820002020202020202020202020200000000018
:103830005374617274204167696E672054657374B4
:1038400000000000C80E0020CC0E0020E80D002073
:103850002020202020202020202020202020200088
:10386000B5B1C7B0C6B5B6CEBDFBD6B9B7A2C9E42F
:103870000000000046756C6C2042616E6420547537
:103880006E696E6700000000660E0020670E002063
:10389000EC0D0020F20D0020C50D00203B0800209B
:1038A00010B5044646F240000549088008464078B5
:1038B000204348700846018847201AF02FF910BDB0
:1038C000000800202DE9F04106460D461446002769
:1038D000B846C5B14FF20B57052C13D2DFE804F000
:1038E0000306090C0F004EF21C670BE04DF6227721
:1038F00008E04DF22D4705E04CF6354702E04FF663
:10390000022700BF2FE048F6E33743F22D58072C7B
:1039100028D2DFE804F004090E13181D220048F62F
:10392000D73743F207581DE048F6ED2743F2E15838
:1039300018E048F6962743F2066813E048F60817A1
:1039400043F279780EE048F6DE5743F25A3809E040
:1039500048F6B36743F2BA2804E048F6887743F2A2
:10396000012800BF00BF8EB135B1012D0DD1394600
:1039700074201AF0D3F808E0394644201AF0CEF843
:10398000414645201AF0CAF800BF11E035B1012DBB
:103990000DD1394675201AF0C1F808E03946542097
:1039A0001AF0BCF8414655201AF0B8F800BF00BF25
:1039B000BDE8F08110B540F2BE3113201AF0AEF828
:1039C00040F27B3112201AF0A9F840F27B2111203D
:1039D0001AF0A4F87A2110201AF0A0F81921142066
:1039E0001AF09CF842F6382149201AF097F848F26C
:1039F00020417B201AF092F810BD000010B504465B
:103A000046F2400005490880084640782043487047
:103A10000846018847201AF0BBF810BD00080020B6
:103A20002DE9F04106460D4614460027B846C5B1BB
:103A30004FF20B57052C13D2DFE804F00306090CF4
:103A40000F004EF21C670BE04DF6227708E04DF2B6
:103A50002D4705E04CF6354702E04FF6022700BF40
:103A60002FE048F6E33743F22D58072C28D2DFE841
:103A700004F004090E13181D220048F6D73743F24C
:103A800007581DE048F6ED2743F2E15818E048F6E4
:103A9000962743F2066813E048F6081743F2797850
:103AA0000EE048F6DE5743F25A3809E048F6B367AD
:103AB00043F2BA2804E048F6887743F2012800BFB1
:103AC00000BF8EB135B1012D0DD1394674201AF0E9
:103AD0005FF808E0394644201AF05AF8414645207C
:103AE0001AF056F800BF11E035B1012D0DD139465D
:103AF00075201AF04DF808E0394654201AF048F8BD
:103B0000414655201AF044F800BF00BFBDE8F081DF
:103B100010B540F2BE3113201AF03AF840F27B3172
:103B200012201AF035F840F27B2111201AF030F8FB
:103B30007A2110201AF02CF8192114201AF028F8F4
:103B400042F6382149201AF023F848F220417B2020
:103B50001AF01EF810BD00002DE9F04105460F4691
:103B600016463C4635B1012D09D0022D18D0032D43
:103B70004BD116E0002151201AF00AF845E040F23E
:103B80009D106043C821B0FBF1F449F2410151207E
:103B900019F0FEFFC4F30C01072019F0F9FF34E01F
:103BA00000BF012E01D0032E05D10121204605F0D2
:103BB000BDFC044604E00021204605F0B7FC0446A5
:103BC000032D04D14FF420401149088003E04FF445
:103BD00000400F4908800E48008840F02C01512019
:103BE00019F0D6FF40F6D721072019F0D1FFC4F312
:103BF0000B01082019F0CCFF4FF4004000EB14300B
:103C000081B2082019F0C4FF00BF00BFBDE8F081F9
:103C10000008002010B5312019F09CFF0B490880E6
:103C20000846007820F00800087008460188312016
:103C300019F0AEFF46F63831282019F0A9FF4AF6F0
:103C40004031292019F0A4FF10BD00000008002019
:103C500010B5044648F22C0014490880200E30B1FB
:103C60000846407820F008000830487005E00F480A
:103C7000407820F008000D4948700C480188512018
:103C800019F086FF40F6D721072019F081FFC4F311
:103C90000B01082019F07CFF4FF4004000EB1430BA
:103CA00081B2082019F074FF10BD00000008002048
:103CB00010B504462146402019F06AFF10BD0000EF
:103CC00070B505462C46012120460EF0E5F907485F
:103CD00000882844A0F50044A1B2382019F058FF0C
:103CE000210C392019F054FF70BD0000442D002034
:103CF00010B50C4A1268D27B11090A4A1268D27CAC
:103D0000C2F3021000F044FA01F0E6FA00F0F6F80F
:103D1000002000F073F80020FFF770FE00F0CAF8F2
:103D200010BD0000E80D002010B54FF40041002048
:103D300019F02EFF0A2004F061F90021084619F05D
:103D400027FF41F60F51372019F022FFFFF7E0FE61
:103D50000021332019F01CFF0021342019F018FF36
:103D60000021352019F014FF44F658411E2019F0A7
:103D70000FFF4AF256611F2019F00AFF4AF237017D
:103D80003E2019F005FF4EF650117D2019F000FF7E
:103D90004FF49D51262019F0FBFE0F48C27A0121F5
:103DA0000020FFF73DFE0C48827A00210846FFF70D
:103DB00037FE0948427A01210846FFF731FE0648DE
:103DC000027A00210120FFF72BFE00F031F80020DD
:103DD000FFF714FE10BD0000242D002010B504468E
:103DE0004EF64010204404490880084601887D2092
:103DF00019F0CEFE10BD00000008002010B50446EA
:103E00007F200A490880A006000E48700CB10120EE
:103E100000E000200549097860F3C71103480170EC
:103E20000188362019F0B4FE10BD00000008002003
:103E300010B541F60F71372019F0AAFE0A2004F0E0
:103E4000DDF84FF40071302019F0A2FE4BF6F1714D
:103E5000302019F09DFE10BD10B5044614480480B2
:103E6000008800EBC01046F6DC0101EBC0001049F1
:103E7000088008460188712019F08AFE312019F067
:103E800069FE0B4908802CB90846007820F0020032
:103E9000087006E00648007820F00200801C044903
:103EA000087003480188312019F072FE10BD00002F
:103EB0000008002010B50021302019F069FE4FF4F1
:103EC000E851372019F064FE10BD10B541F60F51CE
:103ED000372019F05DFE0A2004F090F840F28F219F
:103EE000522019F055FE4FF40071302019F050FEA9
:103EF0004CF2FE11302019F04BFE10BD10B53320EE
:103F000019F028FE064908800846007800F0E00015
:103F1000087008460188332019F03AFE10BD0000F1
:103F20000008002010B5332019F014FE064908805F
:103F30000846007840F010000870084601883320D9
:103F400019F026FE10BD00000008002010B500F09A
:103F50005EF98349097809B9012100E0002101EBEC
:103F60004101804A02EB0111C87800F057F90120A5
:103F7000FFF744FDFFF74EFE7B4890F867000228EC
:103F80000FD17749097809B9012100E0002101EB3F
:103F90004101744A02EB0111D1F80600FFF790FECF
:103FA0000EE06F49097809B9012100E0002101EB19
:103FB00041016C4A02EB0111D1F80A00FFF780FEC3
:103FC0006748007808B9012000E0002000EB4000BD
:103FD000644901EB0010807C0421B1EB501F32DDFD
:103FE0005F48007808B9012000E0002000EB4000A5
:103FF0005C4901EB0010C07B00095C49088058480F
:10400000007808B9012000E0002000EB400055498D
:1040100001EB0010C089C0F30B00554908805049DE
:10402000097809B9012100E0002101EB41014D4B64
:1040300003EB0111897C4A094C4908784C490988ED
:10404000FFF78AFD0DE04649097809B9012100E032
:10405000002101EB4101434A02EB01114869FFF7DE
:10406000F7FD3F48007808B9012000E0002000EB90
:1040700040003C4901EB0010807C40093D4908703C
:104080000020FFF7E9FE384991F8AD00FFF7A6FEE2
:104090003348007808B9012000E0002000EB400020
:1040A000304901EB0010C07828B93349B1F803005A
:1040B000FFF7FEFD03E030494889FFF7F9FDFFF700
:1040C00004FF01F027F9FFF72DFF2C48007880BB93
:1040D0002348007808B9012000E0002000EB4000F0
:1040E000204901EB0010007C022804D1244800780C
:1040F000FFF784FE33E01A48007808B9012000E099
:10410000002000EB4000174901EB0010007C58B97B
:104110001B4909781B4A12788C1804EBD471C1F33F
:104120004700FFF76BFE1AE016480078FFF766FEBF
:1041300015E0FFE77F20144908800B48B73013498A
:104140000978405C104948700846007820F08000EB
:104150008030087008460188362019F019FD10BD1E
:104160000A0E0020C0370020C032002012080020B4
:104170001408002016080020442D0020F60E002010
:104180001B0800201C080020000800201A0800203E
:1041900070B505460C4605B970BD49F24101512084
:1041A00019F0F6FC2CB940F26F41072019F0F0FC31
:1041B00028E0012C21D1012D06D0022D0AD0032D9B
:1041C0000ED0042D18D111E040F26F41072019F0F4
:1041D000DFFC11E04AF28F21522019F0D9FC0BE0EC
:1041E0004CF28F21522019F0D3FC05E04EF28F21C2
:1041F000522019F0CDFC00BF04E048F23F215220CC
:1042000019F0C6FCFA2003F0F9FE00BFC4E710B5B0
:10421000FFF70EFE0A2003F0F1FE10BD10B50446B4
:10422000012C05D144F24801432019F077FC04E049
:1042300043F22801432019F071FC10BD70B54FF412
:104240007A75002400260020424908604FF470402F
:104250004149088072E0012003F0D0FE692019F086
:104260003DFC3E490880681E85B208464078C0097A
:10427000002841D108464078C0F3801000B10126E3
:1042800036480088C0F30B0424036A2019F026FC8A
:104290003249088008460088C0F30B0004443048C7
:1042A000844202D04000844200D126E0B4F5000FE1
:1042B00006D06FF07F40844202D04010844200D18B
:1042C00040E0244804606EB9C4F31604204602F0AE
:1042D00047FE214908800846008848B100201D4952
:1042E000086070BD1B48006840F080701949086084
:1042F000002019490880F4E700BF682019F0EEFBA0
:104300001649088008464078C009B8B908460088B0
:10431000C0F30C04C82014FB00F040F29D11B0FB68
:10432000F1F4B4F5166F00D2641CB4F5FA7F05D928
:10433000A0B240F4805008490880D2E7002D8AD10D
:104340002DB900BF0020044908800249086000BF61
:10435000C7E7000004080020020800200008002031
:104360005555550010B54FF44071512019F0D6FB4A
:10437000C82003F043FE00F00DFE10BD2DE9F04112
:1043800005460F4616463C4635B1012D09D0022D93
:1043900018D0032D4BD116E00021512019F0BEFB9F
:1043A00045E040F29D106043C821B0FBF1F449F2B2
:1043B0004101512019F0B2FBC4F30C01072019F0A0
:1043C000ADFB34E000BF012E01D0032E05D1012149
:1043D000204605F0ABF8044604E00021204605F035
:1043E000A5F80446032D04D14FF42040114908805C
:1043F00003E04FF400400F4908800E48008840F069
:104400002C01512019F08AFB40F6D721072019F022
:1044100085FBC4F30B01082019F080FB4FF400402A
:1044200000EB143081B2082019F078FB00BF00BF08
:10443000BDE8F0810008002010B50C2019F04EFBFB
:104440002F4908800846007800F0010050B12D483F
:104450000078022806D118F0F5FC0C2019F03EFB7C
:104460002749088026484078C0F3C00008B10420DE
:1044700010BD2548006840790121B1EB101F04D020
:10448000214800684079000918BB1D484078C0F3F6
:10449000401030B91A484078C0F3001008B1042029
:1044A000E6E717484078C0F3401030B11448407830
:1044B000C0F3001008B90420DAE711484078C0F3CF
:1044C000401030B10E484078C0F3001008B104200D
:1044D000CEE70B484078C0F3800008B10120C7E761
:1044E00007484078C0F3801008B10220C0E70448B4
:1044F0004078C00908B10320BAE70020B8E70000FF
:1045000000080020210E0020E80D002010B5312009
:1045100019F0E4FA0B4908800846007820F00800FA
:10452000087008460188312019F0F8FA46F638314B
:10453000282019F0F3FA4AF64031292019F0EEFA52
:1045400010BD00000008002010B5044648F22C0001
:1045500014490880200E30B10846407820F0080049
:104560000830487005E00F48407820F008000D49F9
:1045700048700C480188512019F0D0FA40F6D72134
:10458000072019F0CBFAC4F30B01082019F0C6FA82
:104590004FF4004000EB143081B2082019F0BEFA4D
:1045A00010BD00000008002070B50446664890F871
:1045B0000102C51C05EB85004FF6FF7101EA4005BD
:1045C000102C13D2DFE804F008131E29343F4A559B
:1045D000606B76818C97A2AD42F2F351712019F095
:1045E0009DFA43F2E151722019F098FAA4E041F6E5
:1045F0001C41712019F092FA43F2C201722019F0A5
:104600008DFA99E041F61C41712019F087FA43F2C6
:10461000E151722019F082FA8EE041F61C417120BE
:1046200019F07CFA43F69131722019F077FA83E0A1
:1046300041F60E71712019F071FA43F2C201722035
:1046400019F06CFA78E041F60E71712019F066FAF3
:1046500043F2E151722019F061FA6DE041F60E71FA
:10466000712019F05BFA43F69131722019F056FA75
:1046700062E042F25C21712019F050FA43F2C2016B
:10468000722019F04BFA57E042F25C21712019F0C8
:1046900045FA43F2E151722019F040FA4CE042F23F
:1046A0005C21712019F03AFA43F69131722019F029
:1046B00035FA41E041F61C41712019F02FFA44F21D
:1046C000DC11722019F02AFA36E041F60E717120E1
:1046D00019F024FA44F2DC11722019F01FFA2BE0D1
:1046E00042F25C21712019F019FA44F2DC117220B7
:1046F00019F014FA20E042F2F351712019F00EFA89
:1047000044F2DC11722019F009FA15E042F2F3517B
:10471000712019F003FA43F2C201722019F0FEF978
:104720000AE042F2F351712019F0F8F943F69131A1
:10473000722019F0F3F900BF00BF0448007810B9E7
:10474000284603F05BFC70BDC0320020260E00201E
:1047500010B50021242019F0E1F90021702019F092
:10476000DDF910BD10B56F21092019F0D7F941F21C
:104770006B01092019F0D2F942F26701092019F002
:10478000CDF943F26201092019F0C8F944F2500151
:10479000092019F0C3F945F24701092019F0BEF9C3
:1047A00046F23A01092019F0B9F947F22C01092023
:1047B00019F0B4F948F24101092019F0AFF949F2B2
:1047C0003701092019F0AAF94AF22501092019F048
:1047D000A5F94BF21701092019F0A0F94CF2E401F8
:1047E000092019F09BF94DF2CB01092019F096F937
:1047F0004EF2B501092019F091F94FF29F010920FD
:1048000019F08CF94FF4DB61212019F087F9144875
:1048100090F8070213490880084600884FF6FF7198
:1048200001EAC0100F4908800846008848F27E015E
:1048300008430C49088008460188242019F06EF9C5
:10484000074890F8060280300649487008464078CC
:10485000087008460188702019F060F910BD00004A
:10486000C03200200008002010B50446FFF77AFF90
:104870002046FFF799FE0348007808B9FFF768FF64
:1048800010BD0000260E00202DE9F04105460E4621
:10489000364890F80202C71C07EB87004FF6FF71FD
:1048A00001EA40071BF054FC00F062F81E2003F000
:1048B000A5FB002454E0285D36282AD012DC3228DB
:1048C00023D008DC232841D02A283BD030281AD016
:1048D00031283FD118E0332818D0342817D0352894
:1048E00038D115E041281DD006DC372812D03828F1
:1048F00011D039282ED10FE0422817D0432819D0E3
:10490000442827D11AE000BF00BF00BF00BF00BF8E
:1049100000BF00BF00BF00BF295D3039C8B2FFF73C
:10492000A3FF17E00A20FFF79FFF13E00B20FFF71C
:104930009BFF0FE00C20FFF797FF0BE00D20FFF728
:1049400093FF07E00E20FFF78FFF03E00F20FFF734
:104950008BFF00BF00BF384603F050FB601CC4B2A1
:10496000B442A8DB03F02EFABDE8F081C03200208B
:1049700010B54BF22A3000F09BFE0121084600F0F2
:104980002FFE40201AF0B4FB10BD10B5044621469E
:10499000402019F0C3F810BD10B500213F2019F0D8
:1049A000BDF82821592019F0B9F80021302019F05C
:1049B000B5F810BD10B54FF420513F2019F0AEF8F6
:1049C00044F22801592019F0A9F843F2280159208E
:1049D00019F0A4F80C480068C07C00F00F0010B972
:1049E000FFF7C0FE01E0FFF7B3FE002007490870A3
:1049F00007490870074908701023002206A10B48D8
:104A000003F020FA10BD0000E80D0020230800206C
:104A10002208002024080020202020202020202000
:104A20002020202020202020000000002508002039
:104A300070B5C8254FF400413F2019F06FF848F2D7
:104A40002801592019F06AF82821592019F066F830
:104A500000240FE01848005D184948701649601C92
:104A6000085C16490870084601885F2019F056F85E
:104A7000A01C84B2102CEDDB42F62801592019F05D
:104A80004DF800200D49088009E00C2019F026F8A7
:104A90000A490880052003F0B1FA681EC5B207482C
:104AA000007800F0010008B9002DEED100210220AD
:104AB00019F034F870BD0000F8150020000800203F
:104AC00010B50446C4B1E021702019F027F843F274
:104AD0006501722019F022F843F2C371582019F0D1
:104AE0001DF845F265615C2019F018F84FF470610B
:104AF0005D2019F013F807E00021702019F00EF87E
:104B00000021582019F00AF810BD10B500213220FC
:104B100019F004F810BD000010B50D2018F0DEFFEC
:104B20000E49088008464078C00908B1002010BD31
:104B30000A480088C0F30A0424040E2018F0CEFFAF
:104B400004440748008848F2280121440C1A2046F2
:104B500002F06CFC04462046E9E700000008002053
:104B6000442D002010B540F60131322018F0D6FF58
:104B7000C8200149087010BDEC0E002070B5054634
:104B80002C46002120460DF087FA0748008828446B
:104B9000A0F50044A1B2382018F0C0FF210C392044
:104BA00018F0BCFF70BD0000442D002010B563203C
:104BB00018F094FF024908800846007810BD0000F4
:104BC0000008002010B5044604F5204081B24D20B5
:104BD00018F0A4FF04F5DE4081B24E2018F09EFFCD
:104BE00010BD000010B564480078032816D14FF4BA
:104BF000804062498862624A1268D27B1109604A29
:104C00001268D27CC2F3021000F0A2FC00F064FB38
:104C1000002000F075F9142003F0F0F956480078F0
:104C200000280BDDFEF7C6FEFEF712F9FEF716F9B7
:104C30000020FEF735FE042018F09EFD504909685B
:104C4000D1F80600FFF79AFF4D480068807C0421E8
:104C5000B1EB501F1BDD4A48006840790009494903
:104C60000880474800688088C0F30B0046490880E8
:104C7000084600884549088041490968897C4A09F5
:104C80004049087840490988FFF778FB04E03C492F
:104C900009684869FFF758FC39480068807C40097A
:104CA0003B4908703B4890F8B2000B2190FBF1F2B1
:104CB00001FB120038490C5C2046FFF783FF3748A0
:104CC0000078A8B92E480068C07840B93448007808
:104CD00000F0F6F83348007800F03CF938E032484C
:104CE000007800F0EDF83148007800F033F92FE05B
:104CF000284890F8B5002E494870264890F8B5002D
:104D0000062805DD234890F8B500801F087002E0F2
:104D1000002027490870264801884F2018F0FEFE21
:104D20001C4890F8B400224948701A4890F8B40022
:104D3000062805DD174890F8B400801F087002E0CF
:104D400000201B4908701A480188782018F0E6FEF8
:104D50000B4800680078012803DD002000F06AFAA3
:104D600002E0012000F066FA00F014F900F03AF9D0
:104D700000200149087010BD210E002000000240F3
:104D8000E80D0020080800200A0800200E08002076
:104D90000C080020C032002021520208F50E00202D
:104DA0001D0800201F0800201E08002020080020E9
:104DB0000008002010B54FF40041002018F0AEFEAE
:104DC0000A2003F01BF90021084618F0A7FE41F65F
:104DD0000F51372018F0A2FEFEF7ECFD4FF4804192
:104DE000332018F09BFE0021342018F097FE00219C
:104DF000352018F093FE44F658411E2018F08EFE20
:104E00004AF256611F2018F089FE4AF237013E200F
:104E100018F084FE4EF650117D2018F07FFE4FF4FE
:104E20009D51262018F07AFE1548C27A01210020F3
:104E3000FEF748FD1248827A00210846FEF742FD3F
:104E40000F48427A01210846FEF73CFD0C48027AE1
:104E500000210120FEF736FD00F09CF8002000F054
:104E6000B6FB0021012000F0BBFB002000F0B4F9EC
:104E7000FDF7EEFFFDF7F2FF0020FEF711FD10BD7C
:104E8000242D002010B504464EF64010204404495D
:104E90000880084601887D2018F040FE10BD000003
:104EA0000008002010B5652018F018FE034908809E
:104EB0000846007800F07F0010BD000000080020C8
:104EC00010B504460B4890F8A4000B49095CA01CDF
:104ED00008440A494870201F064991F8A410064A60
:104EE000515C084405490870084601884F2018F0B5
:104EF00015FE10BDC03200202C5202080008002010
:104F000010B504467F200A490880A006000E4870AC
:104F10000CB1012000E000200549097860F3C711B9
:104F2000034801700188362018F0F8FD10BD00001C
:104F30000008002010B5672018F0D0FD0449088053
:104F400008460088C0F3080008800846008810BDA5
:104F50000008002010B504460B4890F8A4000B4947
:104F6000095CA01C08440A494870201F064991F8B2
:104F7000A410064A515C0844054908700846018897
:104F8000782018F0CBFD10BDC03200203752020847
:104F90000008002010B541F60F71372018F0BEFD53
:104FA0000A2003F02BF84FF40071302018F0B6FD02
:104FB0004BF6F171302018F0B1FD10BD10B5332063
:104FC00018F08CFD064908800846007800F0CC00F7
:104FD000087008460188332018F0A0FD10BD0000BD
:104FE0000008002010B5332018F078FD244908800F
:104FF0000846007800F0CC000870224800780628A7
:1050000026D2DFE800F00304050D151D20E000BFE7
:105010001B48007820F00100401C1949087017E077
:105020001748007820F010001030154908700FE084
:105030001348007820F0200020301149087007E064
:105040000F48007820F00200801C0D49087000BF56
:1050500000BF0B480188332018F060FD0948007834
:10506000032803D007480078042803D1012006490B
:10507000086003E0012004491039086010BD0000F9
:1050800000080020390800202814024010B5002430
:1050900002203E4908703E480068407C022805D145
:1050A0003C48007840F008003A49087038490968DF
:1050B000C97C01F00F0000F08FF835480068C07C13
:1050C00000F00F0028B1042201210020FEF7FAFBB6
:1050D00005E03148C27A01210020FEF7F3FB2C489D
:1050E0000068007830B101281AD002282ED0032899
:1050F00043D12CE0294890F8AE404FF6FF7000EA0B
:10510000041404F5304084B2244890F8AF002044E1
:1051100084B20020224908700120FEF7C1FB2CE078
:105120001E4890F8B0404FF6FF7000EA041404F5F2
:10513000304084B2194890F8B100204484B2012074
:10514000174908700720FEF7ABFB16E000BF1348B5
:1051500090F8B0404FF6FF7000EA041404F53040B8
:1051600084B20E4890F8B100204484B201200C496A
:1051700008700520FEF794FB00BF00BF204600F03A
:1051800097FA042019F0B4FF10BD0000210E002092
:10519000E80D0020220E0020242D0020C032002027
:1051A0001008002010B5094890F8A40008B90120A3
:1051B00010BD0C2018F092FC0549088008460078C4
:1051C000C0F34000034909780843F1E7C0320020EA
:1051D000000800201C0E002010B50446144804806E
:1051E000008800EBC01046F6DC0101EBC00010495E
:1051F000088008460188712018F090FC312018F0D2
:105200006DFC0B4908802CB90846007820F002009C
:10521000087006E00648007820F00200801C04496F
:10522000087003480188312018F078FC10BD000098
:105230000008002010B50446732018F04FFC0B49FD
:1052400008802CB10846007820F01000087006E0B5
:105250000648007820F01000103004490870034818
:105260000188732018F05AFC10BD000000080020CF
:1052700010B5FFF7A3FE0021302018F04FFC4FF4CB
:10528000E851372018F04AFC01200149087010BD90
:10529000200E002010B5044641F60F51372018F0BB
:1052A0003DFC0A2002F0AAFE40F28F21522018F0A5
:1052B00035FC4FF40071302018F030FC2CB94CF262
:1052C000FE11302018F02AFC04E04CF2FA313020B4
:1052D00018F024FC10BD000010B54FF400400A493E
:1052E0000860001109490860332018F0F7FB0849ED
:1052F00008800846007800F0F3000870084601882E
:10530000332018F00BFC10BD28080240280402408E
:105310000008002010B54FF400402149086000113A
:1053200020490860332018F0D9FB1F49088008463F
:10533000007800F0F30008701C480078062828D296
:10534000DFE800F027030C161E1F4FF4004014493D
:10535000103908600011134908601AE04FF400404A
:105360000F491039086000110E491039086010E02B
:105370000D48007820F0080008300B49087008E05C
:1053800000BF0948007820F00400001D064908709D
:1053900000BF00BF04480188332018F0BFFB10BDD8
:1053A0002808024028040240000800203808002095
:1053B00010B5FFF703FE5648007810B9554800783D
:1053C00018B10320FEF76CFA02E00120FEF768FA3C
:1053D00051490968D1F80A00FFF7D0FB4F4800781F
:1053E000032803D04D480078042803D101204C49FC
:1053F000086003E001204A49103908604648006807
:10540000807C0421B1EB501F17DD43480068C07B4E
:1054100000094449088040480068C089C0F30B0077
:10542000414908803C490968897C4A093D49087816
:105430003D490988FEF7A2FF04E037490968486939
:10544000FFF782F834480068807C400937490870CB
:105450000020FFF7C1FE364991F8AD00FFF712FDBD
:105460002D480068C07828B93249B1F80300FFF729
:105470008CFA03E02F494889FFF787FA2449097815
:1054800011B92449097809B1012100E00021084639
:10549000FFF700FFFFF73EFF27480078F8B91E48E6
:1054A0000068007C022804D124480078FFF728FD1A
:1054B0002AE019480068007C01280BD11F490978AF
:1054C0001F4A12788C1804EBD471C1F34700FFF720
:1054D00017FD19E01A480078FFF712FD14E07F204D
:1054E000184908801248B73017490978405C1549B7
:1054F00048700846007820F0800080300870084628
:105500000188362018F00AFB03201049087010BDEE
:105510001D0E00201B0E0020E80D00203808002082
:1055200028140240080800200A0800200C08002067
:10553000C0320020442D0020F60E00201B08002061
:105540001C080020000800201A080020210E00205E
:1055500070B505460C4605B970BD49F241015120B0
:1055600018F0DCFA2CB940F26F41072018F0D6FA97
:1055700028E0012C21D1012D06D0022D0AD0032DC7
:105580000ED0042D18D111E040F26F41072018F021
:10559000C5FA11E04AF28F21522018F0BFFA0BE051
:1055A0004CF28F21522018F0B9FA05E04EF28F210B
:1055B000522018F0B3FA00BF04E048F23F21522015
:1055C00018F0ACFAFA2002F019FD00BFC4E710B5DC
:1055D00004466720604381B2712018F09FFA10BD25
:1055E00070B504460D46702018F078FA1749088007
:1055F000C02048700846407865F3C71048700846D8
:105600000188702018F08AFA95B144B14CF2FA3151
:10561000302018F083FA0320FEF742F914E040F23C
:105620000231302018F07AFA0220FEF739F90BE047
:105630002CB14CF2FE11302018F070FA04E04BF659
:10564000F171302018F06AFA70BD000000080020E7
:1056500070B504460D46642018F040FA08490880E9
:1056600008460088A04201DB012070BD0448008884
:10567000A84201DC0020F8E702480078F5E70000C6
:10568000000800202A0E002010B50446312018F032
:1056900025FA064908800846007864F382000870FD
:1056A00008460188312018F039FA10BD00080020A2
:1056B00010B50446012018F011FA13490880084675
:1056C0000088082819D2DFE800F012180405131822
:1056D000060700BF00BF00BF04F00F00032801DD74
:1056E000E01E84B22146482018F018FA0AE000BFF4
:1056F0002146482018F012FA04E02146482018F00C
:105700000DFA00BF00BF10BD0008002010B508480A
:10571000007800B910BDFFF73DFCFFF763FC0A20DD
:1057200002F06CFC00200249087000BFF2E70000A4
:10573000200E00201CB500244FF40050324988612F
:10574000400088610BF08AFC17F0EEFF002040F269
:105750003F130246EF21009011F036FE00212B4846
:10576000B0F8150010232AA2CDE90001A0213020B5
:1057700003F03DFC00212548B0F81500102329A2B4
:10578000CDE900018821302003F031FC4FF4805234
:10579000510029481FF02AFA03201FF081FA4FF424
:1057A00080524FF4405124481FF01CFB00BF14E00E
:1057B0004FF4804000EB043182101F481FF016FAAE
:1057C00004F110001FF06CFA4FF4803000EB04314C
:1057D000021119481FF006FB641C0C2CE8D34FF48F
:1057E00080524FF4562114481FF000FAD7201FF0C2
:1057F00057FA4FF480524FF457210F481FF0F2FA36
:105800000BF03CFC1CBD000000000240C032002038
:105810004261636B696E672075702E2E2E202020EA
:1058200000000000506C6561736520776169742029
:105830002020202000000000C438002010B50BF00C
:105840000DFC4FF48052002107481FF0CFF90120D2
:105850001FF026FA4FF48052114603481FF0C2FA97
:105860000BF00CFC10BD0000C438002030B502461F
:105870000B460024012519460CE0481EC1B2505CBD
:10588000212801DA002030BD505C213800FB05449E
:105890005B2045430029F0D12046F4E7F0B50246ED
:1058A0000B46002000215B2500241146144600BF52
:1058B0005B291CD35B26B1FBF6F15B2901D3754351
:1058C000F6E701F121061E5405FB11410C465B254C
:1058D000461CF0B25B2C00D3EAE704F1210606F087
:1058E000FF0C0646471CF8B203F806C000E000BFF4
:1058F000F0BD000070B504460E4890FBF4F0451E64
:10590000012102201EF07AFB002229464FF0804040
:105910001FF01EFB00214FF080401FF021FB0122F1
:10592000114690071FF032FB012188071FF01DFB75
:1059300070BD000000366E0100BFFEE770B5054681
:1059400000244A4890F8750000EB80014748793000
:10595000405C02285CD1454890F87500C0EB00100F
:10596000C0EBC000424901EB8000448800BF0B2D12
:1059700007D1601CC82190FBF1F201FB120084B238
:1059800007E004F1C700C82190FBF1F201FB12000F
:1059900084B2364890F87500C0EB0010C0EBC00030
:1059A000334901EB8000143000EB44000088B0F56F
:1059B000806F00DBDBE72D4890F87500C0EB00102E
:1059C000C0EBC0002A4901EB80004480274890F8D2
:1059D0007500C0EB0010C0EBC00001EB800014307C
:1059E00000EB440004880121204601F015FC58B961
:1059F0001E4890F87500C0EB0010C0EBC0001C49B9
:105A000001EB80004488B2E703201A49087018E0CF
:105A1000164890F87500184931F8104000BF0B2D5A
:105A200003D1601CC0F3090402E0601EC0F3090446
:105A30000121204601F0F0FB00B9F0E702200D49FA
:105A400008704FF4FA700D490880084991F86720F2
:105A500091F87500012300210CF0A0FE034991F894
:105A60007500012119F04AF970BD0000C032002014
:105A7000B42D0020620E00200C0E0020640E0020C9
:105A800010B5642002F0BAFA02202F490860012004
:105A900000F03CF902202C4910390860642002F023
:105AA000ADFA022028490860E02000F02FF911200B
:105AB00000F02CF9802000F029F902202249103949
:105AC0000860192002F09AFA02201F490860E020BD
:105AD00000F01CF9112000F019F9402000F016F92F
:105AE0000220194910390860052002F087FA0220C7
:105AF00015490860E12000F009F9022000F006F9DC
:105B00001C2000F003F902200F49103908600A2018
:105B100002F074FA02200C490860E22000F0F6F866
:105B20000A4991F8F210302242EA4101C8B200F06D
:105B3000EDF83E2000F0EAF8022003491039086031
:105B4000052002F05BFA10BD28140240C036002088
:105B500070B50025002400BF11E06006040E02208D
:105B600009498862042108481EF017FC08B144F076
:105B7000010400BF022004498861681CC5B2082DD9
:105B8000EBDB204670BD0000000002402DE9F04133
:105B9000064602200C490860304600F0B7F8FFF7CF
:105BA000D7FF0446FFF7D4FF074602200649103905
:105BB000086025464FF47F4000EA0520384485B24E
:105BC0002846BDE8F08100002814024070B5044664
:105BD000022007490860204600F098F8FFF7B8FF58
:105BE00005460220024910390860284670BD0000B1
:105BF0002814024010B502200749086000BF0120A8
:105C000000F084F800BF02200349103908603220F8
:105C100002F0F4F910BD00002814024010B5022073
:105C20000C490860E12000F071F80B4991F8F1107F
:105C3000302242EA4101C8B200F068F81C2000F0AE
:105C400065F802200349103908600A2002F0D6F9ED
:105C500010BD000028140240C036002070B5044674
:105C6000002600E000BFE620FFF790FF00F4805020
:105C7000B0F5805F05D03046711C8EB2B0F57A7FEA
:105C8000F0DBB6F57A7F01DB002070BD02201449FD
:105C9000086000BFE32000F039F8204600F036F835
:105CA00000BF02200E4910390860002514E00220D0
:105CB0000C49886204F08000802802D101208861AC
:105CC00002E001200749886200BF0220054988617F
:105CD0006006040E681CC5B2082DE8DB0120D4E77D
:105CE000281402400000024070B505460E4600240C
:105CF00000BF06E0285DFFF7B1FF00B970BD601C72
:105D000084B2B442F6DB00BFF8E70000002114E0E3
:105D100002220B4B9A6200F08002802A02D10122FB
:105D20009A6102E00122064B9A6200BF0222044BF4
:105D30009A614206100E4A1CD1B20829E8DB70476E
:105D4000000002402DE9F04706460F469146002428
:105D50000025A046B9F1000F0BD001E0681CC5B2C8
:105D6000042C11DA2046611CCCB2305C2E28F5D10F
:105D70000AE001E0681CC5B2052C05DA2046611C6A
:105D8000CCB2305C2E28F5D1022D0ADDA81EC5B29A
:105D9000002403E0305D3855601CC4B2AC42F9DB2E
:105DA00002E001253020387000240FE02819305C13
:105DB0002E2801D1601CC4B208EB88004FEA4008CD
:105DC0002819305C30388044601CC4B2082CEDDBEC
:105DD0003C20B8FBF0F80521404615F007F80024F8
:105DE00005E00548005D29197854601CC4B2052CF3
:105DF000F7DBBDE8F0870000142D00202DE9F04707
:105E0000064688469246002400270025A146BAF19E
:105E1000000F0BD001E0681CC5B2042C11DA20463B
:105E2000611CCCB2305C2E28F5D10AE001E0681C80
:105E3000C5B2052C05DA2046611CCCB2305C2E2898
:105E4000F5D1022D0BDDA81EC5B2002404E0305DA3
:105E500008F80400601CC4B2AC42F8DB03E0012582
:105E6000302088F8000000270FE0E819305C2E2869
:105E700001D1781CC7B209EB89004FEA4009E81943
:105E8000305C30388144781CC7B2082FEDDB09F54F
:105E9000FA790721484614F0A9FF02232246074950
:105EA000404601F0CFFFA01CC4B2022322460349A2
:105EB000891C404601F0C6FFBDE8F087142D002084
:105EC0002DE9F04705460E46914600240027A046DE
:105ED000B9F1000F0BD001E0781CC7B2042C11DA25
:105EE0002046611CCCB2285C2E28F5D10AE001E0E6
:105EF000781CC7B2052C05DA2046611CCCB2285CA0
:105F00002E28F5D1022F0ADDB81EC7B2002403E007
:105F1000285D3055601CC4B2BC42F9DB02E00127A9
:105F200030203070291902232246304601F08AFFC2
:105F3000A01CC4B2291902232246304601F082FF78
:105F4000305D30381FFA80F808EB88004FF6FF719B
:105F500001EA4008601C305C303840441FFA80F889
:105F6000C8EB0810322101EB8000642190FBF1F0B6
:105F70001FFA80F80221404614F038FF022322461F
:105F80000249304601F05EFFBDE8F087142D002085
:105F90002DE9F04706460F46914600240025A0460D
:105FA000B9F1000F0BD001E0681CC5B2042C11DA66
:105FB0002046611CCCB2305C2E28F5D10AE001E00D
:105FC000681CC5B2052C05DA2046611CCCB2305CD9
:105FD0002E28F5D1022D0ADDA81EC5B2002403E04B
:105FE000305D3855601CC4B2AC42F9DB02E00125DB
:105FF000302038702E20785500240FE02819305CAE
:106000002E2801D1601CC4B208EB88004FEA40087A
:106010002819305C30388044601CC4B2082CEDDB99
:106020000223AA1D0EA1384601F00CFF2819315C8D
:1060300005F1080039543C20B8FBF0F80521404632
:1060400014F0D4FE002406E00648015D681C2044DC
:106050003954601CC4B2052CF6DBBDE8F0870000A3
:10606000A1E30000142D00202DE9F04706460F465D
:1060700092460024A0460025A146BAF1000F0BD09D
:1060800001E0681CC5B2042C11DA2046611CCCB2B8
:10609000305C2E28F5D10AE001E0681CC5B2052C61
:1060A00005DA2046611CCCB2305C2E28F5D1022DD9
:1060B0000ADDA81EC5B2002403E0305D3855601C1F
:1060C000C4B2AC42F9DB02E0012530203870022373
:1060D000224623A1384601F0B5FE4FF0000815E036
:1060E00005EB0800305C2E2803D108F1010000F018
:1060F000FF0809EB89004FEA400905EB0800305C16
:106100003038814408F1010000F0FF08B8F1080FB1
:10611000E6DB09F5FA790721484614F067FEA01C72
:10612000C4B2022322460F49384601F08BFEA01C60
:10613000C4B22E203855601CC4B20223224609493D
:10614000891C384601F07EFEA01CC4B227203855B9
:10615000601CC4B205F10800305C3855BDE8F0871A
:10616000A1E30000142D00202DE9F04706460D465E
:10617000914600240027A046B9F1000F0BD001E0A2
:10618000781CC7B2042C11DA2046611CCCB2305CFA
:106190002E28F5D10AE001E0781CC7B2052C05DAFB
:1061A0002046611CCCB2305C2E28F5D1022F0ADDCE
:1061B000B81EC7B2002403E0305D2855601CC4B28D
:1061C000BC42F9DB02E0012730202870022322467E
:1061D00024A1284601F036FEA01CC4B23019811E4D
:1061E00002232246284601F02DFEA01CC4B227201F
:1061F0002855601CC4B23019811E0223224628464D
:1062000001F020FE285D30381FFA80F808EB880086
:106210004FF6FF7101EA4008601C285C30384044AA
:106220001FFA80F8C8EB0810322101EB80006421CE
:1062300090FBF1F01FFA80F80221404614F0D6FDE1
:10624000022322460849284601F0FCFDA01CC4B2E6
:1062500022202855601CC4B207F10800305C285584
:10626000BDE8F087A1E30000142D00202DE9F14FD7
:106270008AB0D3A30FCB06AC0FC4D5A30FCB02AC0F
:106280000FC40A9818BBD6480078312808D0D5A387
:10629000D9A2C821022006F021F80BB0BDE8F08F8A
:1062A0000B21DA4800F084FE82460B21D84800F02A
:1062B0007FFE06460A21D548133000F079FE83465A
:1062C0000A21D3480B3800F073FE044658E0002042
:1062D00017F018FA8246052017F014FA8346C048D2
:1062E000007831280BD10B21C84800F061FE06462A
:1062F0000A21C648133000F05BFE044640E0082146
:10630000504614F073FD082705E0781EC149085C6B
:10631000C855781EC7B2032FF7DC2E20BD49C870C0
:10632000BD484079487210230022BCA1C04801F04A
:1063300089FD0A230522B749BD4801F083FD0721E5
:10634000584614F053FD072705E0781EB149085C54
:10635000C855781EC7B2022FF7DC2E20AD498870D1
:10636000AD48807A087210230022B2A1B64801F02D
:1063700069FD09230522A749B34801F063FD8CE7B5
:10638000BAF1000F04D01EB1BBF1000F00D034B938
:1063900094A3AEA2C821022005F0A0FF7DE75645D8
:1063A00004D3A6EB0A064FF0010803E0AAEB0606A9
:1063B0004FF00008AA487043AA49B0FBF1F65C45CB
:1063C00004D3A4EB0B044FF0010903E0ABEB04048E
:1063D0004FF00009A4486043A249B0FBF1F4B8F1C2
:1063E000000F06D002230022A0A106A801F02AFD7A
:1063F00005E0022300229EA106A801F023FDB9F1C9
:10640000000F06D002231A469AA106A801F01AFD31
:1064100005E002231A4698A106A801F013FD2146C3
:1064200030460BF0EFF905460221284614F0DEFC59
:1064300002230622774906A801F004FDB8F1000FF7
:1064400017D1B9F1000F14D15A2D05D100206F4991
:10645000491F81F895005CE02DB902206B49491F66
:1064600081F8950055E001206849491F81F89500A1
:106470004FE0B8F1000F17D1B9F1010F14D15A2D27
:1064800005D104206149491F81F8950041E02DB9EB
:1064900002205E49491F81F895003AE003205B49DC
:1064A000491F81F8950034E0B8F1010F17D1B9F117
:1064B000010F14D15A2D05D104205449491F81F8E8
:1064C000950026E02DB906205049491F81F8950016
:1064D0001FE005204D49491F81F8950019E0B8F1EA
:1064E000010F16D1B9F1000F13D15A2D05D100209B
:1064F0004649491F81F895000BE02DB90620434914
:10650000491F81F8950004E007204049491F81F8A0
:10651000950001205949887006FB06F104FB041020
:106520001DF065FF01900921019814F05FFC09231B
:106530000022384902A801F085FC0A9890B90C2382
:1065400000224FA131486C3001F07CFC1F202F4904
:10655000491FA1F8960002AB06AAC821022005F047
:10656000BDFE18E00C23002249A128486C3001F040
:1065700069FC4FF4FC602549491FA1F896001023DF
:10658000002206A92A4801F05DFC1023002202A97E
:106590002D4801F057FC0C23002206A91B48783037
:1065A00001F050FC0C23002202A91848843001F0AD
:1065B00049FC0120314908714871887100BF6CE6BF
:1065C0004561737420202020A1E32020202020207A
:1065D000202020202020202020204D20202020208E
:1065E0007C0F002020202020202020202020202080
:1065F0002020202000000000475053204661696C95
:10660000656420202020202000000000B90900201F
:10661000437D0020142D0020F81500204C6F6E677C
:106620003A202020202020202020202000000000D0
:106630009E0F00204C6174203A2020202020202032
:106640002020202000000000AE0F002047505320E3
:106650004461746120496E76616C696400000000D9
:10666000B2910100A086010060B40100572D000026
:10667000452D0000533A00004E3A00004E0A00201B
:1066800046726F6D20537461727420200000000008
:1066900043616C6C204C6F636174652000000000E6
:1066A0002DE9FF4F85B061A30FCB01AC0FC40B21C7
:1066B000059800F07DFC82460B21069800F078FCDE
:1066C00081460A21079800F073FC83460A21089846
:1066D00000F06EFC0646D14503D3A9EB0A09012759
:1066E00002E0AAEB09090027544809FB00F05449CD
:1066F000B0FBF1F95E4504D3A6EB0B064FF00108A1
:1067000003E0ABEB06064FF000084E4870434C49DF
:10671000B0FBF1F609FB09F106FB06101DF067FE60
:10672000044637B10223002247A101A801F08AFBE9
:1067300005E00223002245A101A801F083FBB8F186
:10674000000F06D002231A4641A101A801F07AFBEE
:1067500005E002231A463FA101A801F073FB314670
:1067600048460BF04FF805460221284614F03EFB40
:1067700002230422384901A801F064FB374884420F
:106780000AD90821204614F031FB08231A46324961
:1067900001A801F057FB09E00721204614F026FB71
:1067A000072308222C4901A801F04CFB10230022EA
:1067B00001A9129801F046FB04EB8400440057B98C
:1067C000B8F1000F07D15A2D00D12BE00DB9A41C50
:1067D00028E0641C26E05FB9B8F1010F08D15A2DFA
:1067E00001D1241D1EE00DB9A41C1BE0E41C19E01E
:1067F000012F0BD1B8F1010F08D15A2D01D1241D61
:1068000010E00DB9A41D0DE0641D0BE0012F09D1AE
:10681000B8F1000F06D15A2D00D103E00DB9A41D27
:1068200000E0E41D204609B0BDE8F08F4541535417
:106830002020A1E3202020202020204DB291010023
:10684000A086010060B40100572D0000452D000016
:10685000533A00004E3A0000142D00207F96980015
:106860002DE9F04100260027002500243548C07896
:1068700038B904230C2234A1354801F0E3FABDE80D
:10688000F081072300223249491D324801F0DAFA2B
:1068900000241FE02F4800782E2800D1EFE72D4874
:1068A00000782D2802D1601CC4B201252948005D62
:1068B0002E2806D006EB860046002648005D3038BC
:1068C0000644601E2349085C2E2801D1012703E0FD
:1068D000601CC4B2072CDDDB00BF4FF4A470704312
:1068E0006421B0FBF1F604230C221BA1184801F02F
:1068F000A9FA87B1C5F10600C1B2304614F076FAA4
:10690000C5F1060083B2C5F1050082B22E211448FC
:106910000DF0E4FF05E0C5F10700C1B2304614F008
:1069200065FA35B9072305220D49094801F08AFAAD
:1069300005E006231A460A49054801F083FA00BF1C
:106940009DE70000C0360020204D20200000000000
:10695000DA090020970F0020666F6F7400000000B6
:10696000142D002070B500240026002534484078FE
:1069700001280CD106231A463249334801F062FA45
:1069800007230C2231A1304801F05CFA70BD0025CC
:1069900018E02C4800782E2800D1F7E72948405D00
:1069A0002E2806D004EB840044002648405D303891
:1069B0000444681E2349085C2E2801D1012603E007
:1069C000681CC5B2062DE4DB00BF1D48407810B13D
:1069D00002281CD10DE040F23C7060434FF47A7104
:1069E000B0FBF1F407230C221AA1174801F02AFA90
:1069F0000DE040F27E4060434FF47A71B0FBF1F459
:106A000007230C2215A1104801F01CFA00BF00BF9B
:106A100056B10521204614F0E9F9052304222E2160
:106A200010480DF05BFF03E00621204614F0DEF96C
:106A300006231A460B49044801F004FA00BFA5E7F3
:106A4000C03600208B0F0020ED090020204B742061
:106A500020202000206B6D2F68202000206D7068A2
:106A600020202000142D00202DE9F04707460D4678
:106A700091469A464FF0000800240026B9F1000F15
:106A800001D0022400E00324234600223946284690
:106A900001F0D8F94FF000080BE006EB8600460045
:106AA00004EB0800385C3038064408F1010000F0BF
:106AB000FF08B8F1050FF0DBC6EB061086000721D2
:106AC000304614F093F9022322460A49284601F081
:106AD000B9F92E21A01C29540523E21C0549891C63
:106AE000284601F0AFF99AF8001004F10800295483
:106AF000BDE8F087142D00202DE9F04106460C4634
:106B000017461D46A7B1072300223146204601F053
:106B100099F9072304222E2120460DF0DFFE0223DF
:106B200008220EA1204601F08DF92878A07213E00A
:106B3000082300223146204601F084F9082305226B
:106B40002E2120460DF0CAFE0223092203A1204671
:106B500001F078F92878E072BDE8F081303000006B
:106B60002DE9F04105460E4690461F4600BFB8F19C
:106B7000000F2ED0042300222946304601F062F98E
:106B80002E2030712879A0F1300404EB84004400F9
:106B900068793038044404EB84004400A879303824
:106BA0000444642060433C21B0FBF1F403212046FF
:106BB00014F01CF9032305221E49304601F042F966
:106BC000022308221CA1304601F03CF93878B0724B
:106BD0002DE0052300222946304601F033F92E200E
:106BE00070716879A0F1300404EB84004400A87946
:106BF0003038044404EB84004400E879303804441D
:106C0000642060433C21B0FBF1F40321204614F0E2
:106C1000EDF8032306220749304601F013F9022359
:106C2000092205A1304601F00DF93878F072BDE86F
:106C3000F0810000142D00203030000010B516F057
:106C40005BFE0923002205A1074801F0FBF80020A4
:106C5000064908600649087010BD000043482D2D04
:106C60002D2D2D20200000002C0F0020280F0020AB
:106C7000260F002010B51023002209A10D4801F0B5
:106C8000E1F8102300220B490B4801F0DBF800204B
:106C90000A4908700A490870012017F027FF10BD43
:106CA0005F202020202020202020202020202020A5
:106CB00000000000360F002044090020350F00209E
:106CC000460F002010B50020384908703849088068
:106CD000384991F80611481C032114F087F8032362
:106CE00002223549354801F0ADF80623002234A1CF
:106CF0003248093801F0A6F83348007830B101284D
:106D000018D002282AD0032844D135E02E49B1F802
:106D10000700052114F06AF8062303222E212648D5
:106D20000DF0DCFD0623002223492448093801F038
:106D300089F82FE02449B1F80700052114F056F82E
:106D4000062302222E211C480DF0C8FD0623002236
:106D500019491A48093801F075F81BE01A49B1F8C9
:106D60000700042114F042F80423022212491348B8
:106D7000093801F067F80DE01349B1F80700032165
:106D800014F034F8032300220B490C48801F01F053
:106D900059F800BF00BF01200C49C870487009F0C5
:106DA00047FB01200949487210BD0000470F002031
:106DB000480F0020C0320020142D0020BB08002006
:106DC0002020202020200000A0320020CB16002010
:106DD00010B516F091FD0923002205A1074801F026
:106DE00031F80020064908600649087010BD00000F
:106DF0002D2D2D2E2D2D2D2D2D0000002C0F0020A2
:106E0000280F0020260F002010B50A4890F87500C2
:106E100000EB800107487930405C10B9FFF7D8FFDC
:106E200001E0FFF70BFF502204214FF4DC7010F05B
:106E3000F9FC10BDC032002010B5002009490860DF
:106E400009490870094991F84F03032113F0CEFF57
:106E5000032306220649074800F0F4FF01200649F3
:106E6000C87010BD280F0020260F0020C03200205F
:106E7000142D00206D090020D616002010B5082121
:106E80000F48006813F0B2FF092303222E210D489A
:106E90000DF024FD092300220A490B4800F0D2FF1F
:106EA0000923002209A10C4800F0CCFF00200B4967
:106EB00008600B49087001200A49887010BD000065
:106EC000640F0020142D0020640900202D2D2D2E8C
:106ED0002D2D2D2D2D0000002C0F0020280F00201F
:106EE000260F0020D616002010B50B48007810B9E8
:106EF000FFF7C4FF08E008480078012802D100F03D
:106F00000DF801E0FFF798FF502204214FF4DC70E8
:106F100010F088FC10BD0000680F002010B50020A4
:106F200009490860094908700949B1F84D0304216D
:106F300013F05CFF042306220649074800F082FF95
:106F400001200649487010BD280F0020260F0020A0
:106F5000C0320020142D002059090020D616002030
:106F6000F0B5044600271FE000250EE028460AF091
:106F70004FFD064606F5006002F0EEFAA04202D18F
:106F800046F40050F0BD681CC5B2692DEEDD04F476
:106F9000800020B16400C4F31600441C02E06400C9
:106FA000C4F31604781CC7B2172FDDDB0020E9E715
:106FB000F0B503460E4600220024002500BFB24271
:106FC00005DA1046571CFAB2185C2E28F7D1B242E7
:106FD00001D10020F0BD032A02DDD01EC2B200E0C4
:106FE0000022002107E004EB84004400585C3038A4
:106FF0000444481CC1B29142F5DB0D4844430021D2
:107000000EE05018185C2E2801D1481CC1B205EBC7
:10701000850045005018185C30380544481CC1B242
:107020000829EEDB3C20B5FBF0F56019D2E7000043
:10703000A086010010B52048007820B1012814D0A6
:10704000022836D123E01C4B1A3300221B49A3F13E
:107050000B00FFF709FD184B0E33012217491331BE
:10706000A3F10A00FFF700FD23E0134B1A330022BF
:107070001249A3F10B00FFF73FFD0F4B0E33012226
:107080000E491331A3F10A00FFF736FD11E00A4B58
:107090001A3300220949A3F10B00FFF761FD064BEB
:1070A0000E33012205491331A3F10A00FFF758FD01
:1070B00000BF00BF10BD0000C0360020B90900208D
:1070C00070B504466578A07830B1012812D0022846
:1070D00017D0032824D115E0681C052190FBF1F29C
:1070E00001FB1200C5B201230022294620460CF004
:1070F0000BFE15E0642202214FF4DC7010F092FBCD
:1071000070BD00BF681C032190FBF1F201FB12006F
:10711000C5B2A2780123294620460CF0F5FD00BF38
:1071200000BF6422022140F25C6010F07BFB00BFD4
:10713000E6E70146092903DC01F13000C0B27047DF
:107140000D2903DC01F13700C0B2F8E70E2901D1A7
:107150002A20F4E70F2901D12320F0E72020EEE7D1
:1071600010B502460B460021002000BF15E020B1FB
:1071700001280DD002280DD100E000BF545C802C06
:1071800002DB545CFF2C01D1002000E0012001E073
:10719000022000BF00BF4C1CA1B29942E7DD10BD28
:1071A00010B502460021002300201A4C207000BFB9
:1071B00027E01848007840EA0310164C2070505C15
:1071C000392806DC505C302803DB505C3038C3B211
:1071D00015E0505C462806DC505C412803DB505C1F
:1071E0003738C3B20BE0505C662806DC505C61287F
:1071F00003DB505C5738C3B201E0002010BD481CCF
:10720000C1B20229D5DB034800781843014C207035
:107210000120F3E77E0F002070B504460E460025DE
:107220003A4890F875003A4931F81000A0426AD007
:10723000254605EB45004FF4804101EB001533492D
:1072400091F8751001EB4101324A02EB0110302236
:1072500029461DF0CBFC2D4890F8750000EB40004E
:107260002C4901EB00108078012819D1274991F8A9
:10727000751001EB4101274A02EB0111D1F806001C
:1072800000F06CF960B1214991F8751001EB4101F2
:10729000204A02EB0111D1F80A0000F05FF9D8B9D9
:1072A0000EB1002070BD194890F87500184931F8EA
:1072B000105005EB45004FF4804101EB00151349D8
:1072C00091F8751001EB4101124A02EB01103022D6
:1072D00029461DF08BFC16E00C4890F8750000EB79
:1072E00080010A4879300844A0F80340074890F824
:1072F0007500074921F810400220074908704FF433
:10730000FA70064908800120CCE70000C032002056
:107310000C0E0020C0370020620E0020640E0020FA
:1073200010B50024FDF788F80446042C10D0012C79
:1073300021D13648008802280AD034480088032822
:1073400006D033480068807C0421B1EB501F12D175
:10735000002008F067F92F480078022807D02E484F
:107360000078022806D12B480078092802D1042091
:107370002A49087010BD2A48007801282AD12448DB
:107380000068007810B103F0C3FB3DE01F4800889F
:1073900030B1012805D002280AD0032816D10EE00A
:1073A00014E0012C03D01F48007800B9E2E70DE09B
:1073B000022C03D01B48007800B9DBE706E0032C61
:1073C00003D01848007800B9D4E700BF00BF03F02D
:1073D0009FFB19E00D48008898B194B911480078D6
:1073E00078B90C48007803280BD00F480188008832
:1073F000401C0D4A1080B1F57A6F05DD08F094FD50
:1074000002E000200849088000BFB3E70808002018
:10741000E80D00203B0800203A0800205E0F002005
:10742000210E00201C0E0020380E002001463220C4
:10743000B1FBF0F0322300FB03F2881A192801D2C5
:107440001046704702F13200FBE7000010B5044619
:10745000204600F083F8002863D0364890F8750085
:1074600000EB4000344901EB0010C0F80640314801
:1074700090F8750000EB400001EB0010C0F80A40E6
:107480002E4884420DD22E4884420AD9012029492F
:1074900091F8751001EB4101274A02EB01110870C8
:1074A00009E00020234991F8751001EB4101224ABF
:1074B00002EB011108701F4890F8750000EB4000C6
:1074C0001D4901EB0010007888B91A4991F8751030
:1074D00001EB810202EBC1011A4A02EB810101F1C9
:1074E00024000323002218A100F0ACFC10E0114995
:1074F00091F8751001EB810202EBC101114A02EB18
:10750000810101F124000323002210A100F09AFC64
:107510000120084991F8751001EBC1010C4A114492
:10752000087101200B4908704FF4FA700A4908806D
:1075300010BD0000C0320020C03700200085CF0001
:1075400080CBA40014160020464D2000414D2000A1
:10755000B0160020620E0020640E002070B50146B7
:1075600000220023002500243148814208D33148FD
:10757000814202D93048814202D33048814201D948
:10758000002070BD2E48407820BB2E4890F8740033
:1075900020B101280BD002281BD111E02A488142DA
:1075A00002D32448814201D90020EAE711E02048B3
:1075B000814202D32448814201D90020E1E708E05A
:1075C0001D48814202D31D48814201D90020D8E7DD
:1075D00000BF00BF002222E002EB8206194888307B
:1075E000805D022817D102EB8206164888303044AD
:1075F000B0F801501548454302EB82061148883027
:107600003044B0F8034011484443A94205D3A14295
:1076100003D80120B5E7581CC3B2501CC2B2042ADB
:10762000DADB042B01D10120ABE70020A9E7000041
:1076300040771B00800BB20300BD010500E1F5059A
:10764000242D0020C032002000A86100A086010087
:1076500010B50BF027F85D49487008464078FF28C0
:1076600003D10BF08BFE59494870594890F87300CC
:1076700040B156484078162803D05448407817281F
:1076800000D110BD402153481CF087FE002834D1A2
:1076900051480078032824D14C4840784B49097858
:1076A00088421ED04948407810280FDA47480078B1
:1076B000102806DB01204949087018F049FDFDF744
:1076C00057F942494878FDF7CFF80AE03F4800787B
:1076D000102806DA002041490870FDF739F800F05B
:1076E00071FB3A48407839490870FF2088700020C3
:1076F000C8700871A1F80500C3E734484078FF2836
:1077000009D03248007930B93048B0F80500401C43
:107710002E49A1F805002D484078FF282FD12B488D
:10772000B0F805000A2806DD284800782749887047
:107730000120C87001E00CF027FB002023490871EC
:10774000A1F805002648007840B16422022140F2E9
:107750005C6010F067F8002021490870214800782B
:1077600020B31B4991F875101F4A32F81110491CBB
:1077700088B215F063FD00201A49087016E013481E
:10778000407812490978884210D11048B0F80500B5
:10779000B0F5487F0ADD0D4800780C49887002205A
:1077A000C870012008710020A1F805000748007882
:1077B00006494978884206D0044840780349087051
:1077C0000020A1F8050000BF5BE70000030E0020C9
:1077D000C032002000040240210E0020260E0020AE
:1077E000250F0020240F00200C0E00202DE9F04171
:1077F0008AB000270026242262A101A8FBF7F7F92E
:1078000000250024FDF7CEFC0646674800780028D6
:107810004CD1BEB96549088065480078012810D16F
:10782000644801780078401C624A1070142908DD11
:107830006148007810B900205D49087000205D495A
:1078400008709BE05D48007803280FD05C48007802
:10785000032803D159480078092807D053480188E4
:107860000088401C514A10800529EADD00204F495C
:1078700008804F480078012803D103204C49087044
:107880007CE05048007858B94C480078032807D06D
:107890004B480078032806D148480078092802D1CF
:1078A00003F036F96AE003F0EDFB67E05EB93F48AC
:1078B00001880088401C3D4A10800A295EDD0020B6
:1078C00007F0B0FE5AE04048008828B13E480088E2
:1078D000001F3D4908804EE03C48007800284AD10E
:1078E0003B4890F8A100384908800846008800EB22
:1078F000C00101EB00104FF6FF7101EA8000324930
:107900000880FDF717FB05466D10A72D01DD002748
:1079100002E0C5F1A700C7B20321384613F066FAAA
:107920000E230C222BA12F4800F08CFA03230022F7
:107930002D492C48123000F085FA002406E001A8F9
:10794000005DA84200DD03E0601CC4B2242CF6DB1D
:1079500000BF26480470A04604EBD870401000EB2E
:107960004000234A8118032300221E48C01E00F055
:1079700076FA18F0EDF800200C4908800AB0BDE84E
:10798000F081000014181C2024282C3034383C408E
:1079900044484C5054585C6064686C7074787C80C7
:1079A00084888C9094989CA0210E0020340E002096
:1079B0005E0F0020360E00205F0F00203B080020E5
:1079C0003A080020280E0020BC0E002010080020DD
:1079D000C0320020525353493A2D30303064626D2A
:1079E0002020000058080020142D0020BA0E00208E
:1079F0007C9B02081FB5FF2410220021684600F07E
:107A0000B5F93DA00CF0CEF9102269463F480CF0C4
:107A10001DFA0123002202213D480CF075F90020D7
:107A20003C49C876012017F015F901203A49087041
:107A300015F07AFE57E00DF005F80EF059FC1AF03B
:107A400049FC3648007820B9012034490870FFF716
:107A5000FFFD3348007838B90420314908703148B7
:107A6000007808B909F002FF2F48008828B94FF4C0
:107A7000FA702D4908801BF013FA2C4880781828DA
:107A800031D02A48807816282DD0284880781728A9
:107A900029D026488078FF2825D0244882781B49A1
:107AA0001B4814F02BFC1A48447DFF2018494875E8
:107AB0001E4988700A2C01D00D2C14D1144800786E
:107AC00088B1134808F0FCFA0D2C06D1502204218D
:107AD0004FF4DC700FF0A6FE05E0502203214FF4B6
:107AE00039700FF09FFE10221149084800F076F916
:107AF0000028A0D01FBD000050617373776F7264BF
:107B000020202020202020200000000050280020DD
:107B100058290020E0160020C50D0020A90E0020E5
:107B2000AA0E0020F90E0020B00E0020030E002047
:107B3000DC32002010B502460B460020002104E094
:107B4000545C0444E0B24C1CA1B29942F8DB10BD75
:107B500030B501460022002400231648814204D398
:107B60001548814201D8002030BD00221DE002EB03
:107B700082051248405D012815D102EB82050F48AD
:107B80002844B0F801400E48444302EB82050B48FC
:107B90002844B0F803300A484343A14203D3994232
:107BA00001D80020E0E7501CC2B2042ADFDB01202C
:107BB000DAE7000080CBA4000085CF004833002026
:107BC000A08601002DE9F041014600250023002296
:107BD000002600279446002400BF0AE0085D3028F4
:107BE00002DB085D392802DD0020BDE8F081601C61
:107BF000C4B20C2CF2DB4878303891F80080A8F140
:107C0000300808EB880800EB4800C5B2C878303867
:107C100091F80280A8F1300808EB880800EB4800D2
:107C2000C3B24879303891F80480A8F1300808EBE5
:107C3000880800EB4800C2B2C879303891F8068055
:107C4000A8F1300808EB880800EB4800C6B2487A73
:107C5000303891F80880A8F1300808EB880800EB6C
:107C60004800C7B2C87A303891F80A80A8F13008C5
:107C700008EB880800EB480000F0FF0C182D0CDB27
:107C80005BB10C2B09DC42B11F2A06DC172E04DC89
:107C90003B2F02DCBCF13B0F01DD0020A5E70D2BE3
:107CA0001FD2DFE803F01E1307141E151E16171E41
:107CB000181E190005F0030018B91D2A05DD002063
:107CC00093E71C2A01DD00208FE70FE000BF00BF13
:107CD00000BF00BF00BF00BF1F2A01DD002084E7F6
:107CE00004E01E2A01DD00207FE700BF00BF012065
:107CF0007BE7000038B500240020009009F0AEF9C1
:107D000000BF05E004F597701CF0CAFF601CC4B208
:107D10001E2CF7DB00200549088002224FF4971142
:107D200068461CF0EBFF09F0A9F938BDEE150020FC
:107D300038B500240020009009F090F900BF05E05C
:107D400004F188001CF0ACFF601CC4B20C2CF7DB03
:107D500000200549088002224FF4082168461CF0E3
:107D6000CDFF09F08BF938BD7A0F002030B50346FE
:107D7000002000BF04E0FF240D185C55441CA0B295
:107D80009042F8DB30BD0000002000BF04E000217D
:107D9000034A1154411CC8B26428F8DB7047000044
:107DA000C07D002001460020084605E00022044B6B
:107DB00023F81020421CD0B20628F7DB70470000E1
:107DC000247E002010B50020FDF701FC00210120D9
:107DD000FDF706FC402015F0CFFC10BD30B5034682
:107DE0000C46002100BF07E0585C655CA84201D04A
:107DF000002030BD481C81B29142F5DB0120F8E73C
:107E000070B506460D46002400BF11E00B4800780F
:107E1000001BA84201DA002070BD094908192A4652
:107E20003146FFF7DBFF012800D1F5E7601CC4B243
:107E3000024800788442E9DB0020EDE724080020B6
:107E40002508002070B50446002000BF04E00D5C4A
:107E50001618A555451CA8B29842F8DB70BD70B540
:107E60000446002000BF04E00D5C1618A555451C13
:107E7000A8B29842F8DB70BD10B5002101201CF0BB
:107E8000F3F8012108461CF0D1F8012108461CF046
:107E9000B5F810BD10B5002102201CF0E5F8012155
:107EA00002201CF0C3F810BD10B502201CF09AF996
:107EB00028B102201CF086F901200149088010BD7C
:107EC000D00D002000B585B01C481CF0DBF96846D9
:107ED0001CF06BF90220ADF80A000020ADF8080094
:107EE0001748019001208DF80F008DF80D001548FE
:107EF000009001208DF80E0000208DF80C0002206B
:107F00008DF8110001208DF8100069460B481CF017
:107F10007FF90121094808381CF0ECF905210748D0
:107F2000FC301CF0EEF90022022104481CF0A1F9FB
:107F3000012102481CF034F905B000BD0860024080
:107F4000CC0D00204C20014070B504460D460F2C8E
:107F500003DC20460CF030F870BD162C02D0172C34
:107F600016D106E0642202214FF4DC700FF05AFCB7
:107F70000EE00948007840B915F0BEFC50220421FB
:107F80004FF4DC700FF04EFC01E000F017F900BF79
:107F900000BF00BFE0E70000350F002002460020D0
:107FA00000BF13E0C0F107039B0022FA03F303F0C4
:107FB0000F030B540B5C0A2B03DA0B5C30330B54AE
:107FC00002E00B5C37330B54431CD8B20828E9DBC2
:107FD000704770470146C1F3821000EB80024FF6F4
:107FE000FF7303EA4200C1F3C202104400EB8002B7
:107FF00003EA420001F007021044704770B50446DE
:10800000002509E04FF4FA701CF06AF843F2C8202A
:108010001CF09EF8681C85B24FF4FA7094FBF0F0E7
:10802000A842EFDC4FF4FA7094FBF0F100FB114032
:1080300086B230461CF054F870BD2DE9F04104467C
:108040000B46154600220021002600278C4601E041
:10805000501C82B2AA4202DAA05C7E28F8D109E064
:10806000A05C03EBE10888F8000001F1080081B290
:10807000501C82B2AA4202DAA05C7E28F0D042E014
:1080800000263CE0A05CB04000F0800080281AD1BF
:1080900003EBE10000784006000E03EBE10888F8EE
:1080A000000003EBE100007840F0010003EBE10881
:1080B00088F80000481C81B2781CC7B2052F1CD17B
:1080C0004FF0010C19E0BCF1000F13D103EBE100FC
:1080D00000784006000E03EBE10888F8000003EB8F
:1080E000E100007800F0FE0003EBE10888F80000F2
:1080F000481C81B24FF0000C0027701CC6B2082E3D
:10810000C0DB501C82B2AA42BADBC810BDE8F081C5
:108110002DE9F041044600260025B4F80071A84678
:10812000B4F800014FF6FF71884202D10020BDE88B
:10813000F081002084F80201B4F800112046FFF716
:108140000FF806460B21204612F0C8FA80460EB101
:10815000012E13D13D4604E0681C205C6055681C6C
:1081600085B2B4F80401401EA842F5DCFF2060553A
:10817000B4F80401401EA4F8040116E0781E85B28C
:1081800004E0A81C205C6055681C85B2B4F80401AA
:10819000801EA842F5DCFF206055FF21681C215499
:1081A000B4F80401801EA4F80401B8F1000F03D153
:1081B0000021204601F080F80120B8E710B51348EF
:1081C0000078401E00F00F00104908705F20104931
:1081D0000E4A127888540D4800780F2805D02021C7
:1081E0000B4A0A480078401C115410230022084909
:1081F0000848FFF727FE012016F078FC50220421E2
:108200004FF4DC700FF00EFB10BD0000350F0020A6
:10821000360F00204409002070B504460D46012D9C
:1082200072D10A2C06D00D2C35D00E2C45D00F2C37
:108230007CD155E051480078042806D06422022100
:108240004FF4DC700FF0EEFA70BD00214C4890F84E
:10825000750000EB80024A487930815416F01EFA0E
:10826000474991F8751001EB4101464A02EB0110B4
:10827000302300224449FFF7E5FD414991F875009C
:1082800016F0EAFA07F06AFE502203214FF4397023
:108290000FF0C8FA4AE039480078042802D007F005
:1082A0005DFE03E03948007803F026F950220421EE
:1082B0004FF4DC700FF0B6FA38E03448007808B9B3
:1082C000012000E00020314908700846007803F0E2
:1082D00013F96422022140F25C600FF0A3FA25E05A
